:020000040800F2
:10000000D8180020FD0700088503000887030008B2
:100010008B0300088F030008930300080000000012
:10002000000000000000000000000000970300082E
:1000300099030008000000009B0300089D030008CE
:100040001708000817080008170800081708000814
:100050001708000817080008170800081708000804
:1000600017080008170800081708000817080008F4
:1000700017080008170800081708000817080008E4
:1000800017080008170800081708000817080008D4
:1000900017080008170800081708000817080008C4
:1000A00017080008170800081708000817080008B4
:1000B00017080008170800081708000817080008A4
:1000C0001708000817080008170800081708000894
:1000D0001708000873070008170800081708000829
:1000E0001708000817080008170800081708000874
:1000F0001708000817080008170800081708000864
:100100001708000817080008170800081708000853
:100110001708000817080008170800081708000843
:100120001708000817080008170800081708000833
:100130001708000817080008170800081708000823
:100140001708000817080008170800083D480008AD
:100150001708000817080008170800081708000803
:1001600017080008170800081708000817080008F3
:1001700017080008170800081708000817080008E3
:10018000170800081708000800F002F800F047F808
:100190000AA090E8000C82448344AAF10107DA45E2
:1001A00001D100F03CF8AFF2090EBAE80F0013F0ED
:1001B000010F18BFFB1A43F00103184790530000CA
:1001C000B0530000103A24BF78C878C1FAD852075B
:1001D00024BF30C830C144BF04680C6070470000C1
:1001E0000023002400250026103A28BF78C1FBD840
:1001F000520728BF30C148BF0B607047642904F024
:100200007786782904F0B086732905F034800020C1
:1002100070471FB505F081F81FBD10B510BD05F082
:1002200045F81146FFF7F5FF00F068F805F063F8B0
:1002300003B4FFF7F2FF03BC00F03CFA08B54949EC
:10024000494802F0DEFF484801F0EFFF4548D0F88A
:1002500080000069A0B14349D1F880100869804747
:100260004049414802F0CDFF3E49D1F8801048682E
:1002700080473C48C06F3B49203142683A4890472C
:10028000394801F07BFB0121802000F07CFE052035
:1002900000F0F0F90021802000F075FE40F2AC5132
:1002A000314804F035FF84212E4804F031FF2F48F7
:1002B0002F4B2C4A012100902B4802F0BFFF08BDB4
:1002C0001CB50121202000F04DFE4FF4C0600090CD
:1002D00001208DF8040000208DF8060003208DF821
:1002E000050001208DF807006946224800F09CFBBC
:1002F0004FF4C0611F4800F013FC1CBD08B54FF45B
:10030000A06000F09BFAA82000F052F94FF41650BC
:1003100000F0DDF9FFF7D4FF1448154B114A012115
:100320000090114802F08AFF1AE00E490E4803F0CF
:10033000BAF911480078012807D110490A4804F099
:1003400036FB40B1FFF77AFF05E0064804F007FBF3
:1003500008B1FFF773FF641C0948844200D10024F0
:10036000E3E70000F0000020740100209C00002062
:10037000540000200014024090000020E8090020F2
:10038000400D0300704700BFFEE700BFFEE700BF5F
:10039000FEE700BFFEE770477047704770470000F8
:1003A0000CB50020019000907648006840F4803041
:1003B0007449086000BF7348006800F40030009082
:1003C0000198401C0190009818B90198B0F5A04F11
:1003D000F1D16C48006800F4003010B101200090A9
:1003E00001E0002000900098012846D16548403087
:1003F000006840F0805063494031086062480068FE
:1004000040F44040604908605E48083000685D493B
:10041000083108600846006840F40040086008465B
:10042000006840F4A05008605848091F0860081F81
:10043000006840F08070091F086000BF51480068E4
:1004400000F000700028F9D040F2057050490860B3
:100450004C480830006820F003004A490831086021
:100460000846006840F00200086000BF45480830B8
:10047000006800F00C000828F8D10CBD10B5454804
:10048000006840F47000434908603E48006840F04E
:1004900001003C49086000203A49083108603948A9
:1004A00000683D490840374908603C48091D08601C
:1004B000081F006820F48020091F086000203149CF
:1004C0000C310860FFF76CFF4FF000603149803954
:1004D000086010BD70B50020002202230024022114
:1004E000284D08352D6805F00C0020B1042806D0F1
:1004F000082834D107E02A4D2A4E356033E02A4DD2
:10050000284E35602FE01F4D2D1D2D68C5F38054FA
:100510001C4D2D1D2D6805F03F0154B1224DB5FB3A
:10052000F1F5184E361D3668C6F3881605FB06F23F
:1005300009E01B4DB5FBF1F5124E361D3668C6F3CA
:10054000881605FB06F20F4D2D1D2D68C5F30145DC
:100550006D1C6B00B2FBF3F5124E356003E0104DDD
:10056000104E356000BF00BF064D08352D68C5F33D
:1005700003150E4E705D0B4D2D68C540094E35605C
:1005800070BD000000380240007000400854400771
:10059000003C024088ED00E0FFFFF6FE1030002432
:1005A0000024F4000000002000127A000400002063
:1005B00010B504466FF0040000F092F9E11704EB67
:1005C0005171C1F3C701394A11701046007800EB30
:1005D0004001C1EBC0104FF6FF7101EAC000344981
:1005E000088010BD0146314A12784A434FF0E0239B
:1005F0005A6100229A611A46126942F001021A6198
:1006000000BF4FF0E022106900F001021AB100F4BF
:100610008032002AF5D04FF0E022126922F0010268
:100620004FF0E0231A6100229A6170470146204A88
:1006300012884A434FF0E0235A6100229A611A4619
:10064000126942F001021A6100BF4FF0E022106906
:1006500000F001021AB100F48032002AF5D04FF008
:10066000E022126922F001024FF0E0231A61002219
:100670009A61704770B504464FF4077094FBF0F030
:10068000C6B24FF4077094FBF0F100FB114085B245
:1006900005E04FF40770FFF7C9FF701EC6B2002EC9
:1006A000F7D115B12846FFF7C1FF70BD1400002037
:1006B0001600002000BF704700BF4C4A128802F0AD
:1006C0004002002AF9D0C2B2484B9A80704710B558
:1006D00088B004460121084600F044FC01211020A6
:1006E00000F09AFC07220921414800F028FA07226D
:1006F0000A213F4800F023FA4FF4C0600690022020
:100700008DF81C008DF81D0000208DF81E000120C2
:100710008DF81F0006A9364800F086F902940020E3
:10072000ADF80C00ADF80E00ADF81000ADF81400F7
:100730000C20ADF8120002A92C4800F0CEFD0121DA
:100740002A4800F052FE012240F22551274800F0CD
:1007500002FF25208DF8040003208DF805008DF898
:10076000060001208DF8070001A800F06CF808B021
:1007700010BD10B540F225511C4800F027FF10B302
:100780001A4800F061FEC4B21A48008800F4004024
:10079000C8B91848008800F4804060B10A2C03D022
:1007A00000201449088020E01248008840F40040EE
:1007B0001049088019E00D2C06D10E48008840F43D
:1007C00080400C49088010E00A480088C0F30D0002
:1007D00009490C5407480088401C0649088008460F
:1007E0000088C72801DD0020088010BD00100140EE
:1007F000000002401C00002020070020094880471C
:1008000009480047FEE7FEE7FEE7FEE7FEE7FEE7F2
:10081000FEE7FEE7FEE7FEE704480549054A064B0A
:10082000704700007D04000889010008D8120020EC
:10083000D8180020D8140020D814002032490143D1
:10084000324A1160704770B5002100230F22C4782E
:100850001CB32E4C246804F4E064C4F5E064C4F3D3
:100860000721C1F10404E3B20A4144789C40E1B29B
:100870008478144021430C07210E254C05786155DE
:10088000047804F01F050124AC4005786D11AD001B
:1008900005F1E025C5F8004109E0047804F01F05E2
:1008A0000124AC401B4D0678761145F8264070BDFA
:1008B000194A0A400243154B1B1F1A60704739B191
:1008C000124A121D12680243104B1B1D1A6006E0EB
:1008D0000E4A121D126882430C4B1B1D1A60704792
:1008E000042808D14FF0E021096941F004014FF0DC
:1008F000E022116107E04FF0E021096921F00401D5
:100900004FF0E022116170470000FA050CED00E0A5
:1009100000E400E080E100E080FFFF1F10B5044626
:100920009848844208D10121084600F086FB002146
:10093000012000F082FB76E09348844208D1012137
:10094000022000F07AFB0021022000F076FB6AE032
:100950008E48844208D10121042000F06EFB002162
:10096000042000F06AFB5EE08948844208D101213E
:10097000082000F062FB0021082000F05EFB52E03E
:100980008448844208D10121102000F056FB002148
:10099000102000F052FB46E07F48844208D101213C
:1009A000202000F04AFB0021202000F046FB3AE026
:1009B0007A48844208D10121402000F03EFB00210A
:1009C000402000F03AFB2EE07548844208D1012116
:1009D000802000F032FB0021802000F02EFB22E07E
:1009E0007048844208D10121801500F026FB0021C7
:1009F000A01500F022FB16E06B48844208D10121CB
:100A0000401500F01AFB0021601500F016FB0AE00B
:100A10006648844207D10121001500F00EFB002139
:100A2000201500F00AFB10BDF0B50A460021002396
:100A3000002400BF3DE0012505FA01F3156805EA31
:100A400003049C4234D105684F000326BE40B543E1
:100A5000056015794E00B540066835430560157987
:100A6000012D02D01579022D16D185684F0003267D
:100A7000BE40B543856055794E00B5408668354324
:100A80008560456801268E40B54345604568967986
:100A90008E40B6B235434560C5684F000326BE4060
:100AA000B543C560D5794E00B540C6683543C560CD
:100AB000491C1029BFD3F0BD4FF6FF710160002122
:100AC000017141718171C171704708B54FF4803275
:100AD0000092009A0A430092009AC261C161009A92
:100AE000C261C2690092C269009208BD024600203C
:100AF00013690B400BB1012000E000207047014654
:100B0000086980B270470246002053690B400BB160
:100B1000012000E0002070470146486980B270471C
:100B200001837047418370470AB1018300E041832C
:100B300070474161704742694A4042617047F0B571
:100B4000002300244D07ED0E02FA05F3CE1000F14C
:100B5000200555F826504E07F70E0F26BE40B54328
:100B6000CF1000F1200646F82750CE1000F12005E6
:100B700055F8265045EA0304CE1000F1200545F84B
:100B80002640F0BD00000240000402400008024080
:100B9000000C024000100240001402400018024005
:100BA000001C0240002002400024024000280240B5
:100BB000F948006840F00100F74908600020F64954
:100BC00008310860F4480068F4490840F2490860B8
:100BD000F348091D0860F348EF4984310860F04884
:100BE0001038091D0860EC48006820F48020EA49AC
:100BF00008600020E8490C310860E7498C31086042
:100C000070470021E44A921C117011460870704729
:100C100010B501460022002300204A11012A02D10A
:100C2000DD4C236808E0022A03D1DB4C70342368D2
:100C300002E0D94C7434236801F01F02012494406F
:100C40001C400CB1012000E0002010BD38B5002090
:100C500000900024002500BF3120FFF7D9FF054692
:100C60000098401C00900098B0F5A04F01D0002DD6
:100C7000F2D03120FFF7CCFF08B1012400E00024BE
:100C8000204638BD01460020C34A106820F0F80015
:100C900040EAC10010607047C349086070470021F6
:100CA000BD4A703211701170012802D004280AD197
:100CB00004E00121B84A7032117005E00521B64AFE
:100CC0007032117000E000BF00BF7047B749086084
:100CD000704770B5049C41EA82150126C6EB5306A5
:100CE00045EA0645054345EA0465AB4E361D3560C9
:100CF00070BDAD4908667047820142EA0172A64B99
:100D000084331A607047A8498866704710B583011C
:100D100043EA016343EA02739F4C8834236010BDA9
:100D2000A14908677047A049C8647047024600207F
:100D3000994B0833186820F0EC6042EA010318432D
:100D4000954B08331860704702460020924B0833D9
:100D5000186820F0784042EA010318438E4B0833AC
:100D600018607047014600208B4A0832106820F056
:100D7000030008431060704787480830006800F09F
:100D80000C00704701460020834A0832106820F0AA
:100D9000F000084310607047014600207E4A083288
:100DA000106820F4E05008431060704701460020AE
:100DB000794A0832106820F4604040EAC1001060AF
:100DC0007047F0B5002100220024022500260223EE
:100DD000714F08373F6807F00C0121B1042905D095
:100DE000082937D105E0724F076036E0714F076080
:100DF00033E0694F3F1D3F68C7F38056664F3F1D84
:100E00003F6807F03F036EB16A4FB7FBF3F7DFF8B7
:100E100088C10CF1040CDCF800C0CCF3881C07FB83
:100E20000CF40CE0624FB7FBF3F7DFF86CC10CF188
:100E3000040CDCF800C0CCF3881C07FB0CF4564F04
:100E40003F1D3F68C7F301477F1C7D00B4FBF5F7EA
:100E5000076002E0564F076000BF00BF4E4F0837E3
:100E60003F6807F0F0010909534F7A5C0768D740E3
:100E70004760494F08373F6807F4E051890A4E4FF1
:100E80007A5C4768D7408760434F08373F6807F46C
:100E90006041490B484F7A5C4768D740C760F0BD56
:100EA000002100F44072B2F5407F0AD13A4A08327C
:100EB000116821F4F811414A02401143364A0832C0
:100EC0001160354A70321268C0F30B031A43324B7B
:100ED00070331A60704735494439086070473349A8
:100EE0004039086070473649086070470146002065
:100EF000294A8C32106820F01F004A1E1043264AEF
:100F00008C321060704701460020234A8C321068F2
:100F100020F4F8504A1E40EA02201F4A8C3210602A
:100F20007047014600201C4A8C32106820F44010A3
:100F300008431060704701460020174A8C32106841
:100F400020F4400008431060704701460020124A18
:100F50008C32106820F44030084310607047194903
:100F60000860704739B10C4A3032126802430A4BAC
:100F700030331A6006E0084A303212688243064B6A
:100F800030331A607047F9B1034A343212680243B1
:100F9000014B34331A601CE000380240FFFFF6EAD0
:100FA000103000240030002000004742800E4742ED
:100FB0000024F40000127A001E000020FFFCFF0F46
:100FC0005C014742E01147428F4A126882438E4BD0
:100FD0001A60704739B18C4A121D126802438A4B5D
:100FE0001B1D1A6006E0884A121D12688243864B58
:100FF0001B1D1A60704739B1834A0C3212680243D4
:10100000814B0C331A6006E07F4A0C32126882432F
:101010007D4B0C331A60704739B17B4A103212682D
:101020000243794B10331A6006E0774A1032126897
:101030008243754B10331A60704739B1724A243AB3
:1010400012680243704B243B1A6006E06E4A243A51
:10105000126882436C4B243B1A60704739B16A4A6C
:10106000203A12680243684B203B1A6006E0664A49
:10107000203A12688243644B203B1A60704739B1B2
:10108000614A1C3A126802435F4B1C3B1A6006E03F
:101090005D4A1C3A126882435B4B1C3B1A607047E6
:1010A00039B1594A143A12680243574B143B1A603B
:1010B00006E0554A143A12688243534B143B1A60B7
:1010C000704739B1504A103A126802434E4B103BF8
:1010D0001A6006E04C4A103A126882434A4B103BB1
:1010E0001A60704739B1484A1C3212680243464BB5
:1010F0001C331A6006E0444A1C3212688243424B99
:101100001C331A60704739B13F4A203212680243DB
:101110003D4B20331A6006E03B4A2032126882437E
:10112000394B20331A60704739B1374A243212687C
:101130000243354B24331A6006E0334A24321268E6
:101140008243314B24331A60704739B12E4A2C3216
:10115000126802432C4B2C331A6006E02A4A2C32C8
:1011600012688243284B2C331A60704739B1264AE3
:10117000303212680243244B30331A6006E0224AB0
:10118000303212688243204B30331A607047012896
:1011900008D11D493C31096841F008011A4A3C3226
:1011A000116007E018493C31096821F00801164A2E
:1011B0003C321160704739B1134A273A1278024322
:1011C000114B273B1A7006E00F4A273A12788243E8
:1011D0000D4B273B1A7070470B484030006840F0B9
:1011E0008070094940310860704701460020064A76
:1011F000283A12680A400AB1012000E00020704736
:1012000001492639087070473438024010B5044649
:10121000FA48844208D101211020FFF752FF002133
:101220001020FFF74EFF57E0F548844209D1012115
:101230004804FFF735FF00214FF40030FFF730FF7F
:101240004AE0F048844209D101218804FFF728FFD1
:1012500000214FF48020FFF723FF3DE0EA4884425D
:1012600009D10121C804FFF71BFF00214FF4002022
:10127000FFF716FF30E0E548844209D10121080557
:10128000FFF70EFF00214FF48010FFF709FF23E066
:10129000DF48844208D101212020FFF712FF0021FE
:1012A0002020FFF70EFF17E0DA48844209D1012120
:1012B0008807FFF7F5FE00214FF08040FFF7F0FEB2
:1012C0000AE0D548844207D101214005FFF7E8FE36
:1012D00000216005FFF7E4FE10BD2DE9FF4705463C
:1012E0000E460024A14600BFA046B08900B100BF51
:1012F0002C8A24F44054F08804432C82AC8941F2B7
:101300000C608443B08831890843718908430443E1
:10131000AC81AC8A24F44074B0890443AC82684642
:10132000FFF74FFDB548854202D0B948854202D14A
:10133000DDF80C9001E0DDF80890A88900F4004089
:1013400040B109EBC90000EB091031684900B0FB5E
:10135000F1F707E009EBC90000EB091031688900DB
:10136000B0FBF1F76420B7FBF0F004012009642121
:1013700001FB1078A88900F4004040B1322000EB56
:10138000C800B0FBF1F000F00700044308E0322091
:1013900000EB08106421B0FBF1F000F00F000443F3
:1013A0002C81BDE8FF874FF4165101600021818038
:1013B000C18001810C21418100218181704710B5DC
:1013C00002460020108A20F470600B884C8823436A
:1013D0008C882343CC8823431843108210BD0021FE
:1013E000018041808180C180704721B1828942F4AF
:1013F0000052828104E082894DF6FF731A40828197
:101400007047028B02F47F420283028B0A430283FD
:10141000704721B1828942F40042828103E08289CF
:10142000C2F30E028281704721B1828A42F40062C7
:10143000828204E0828A4FF2FF731A4082827047F0
:10144000C1F308028280704701468888C0F3080013
:101450007047028A4FF6F0731A400282028A0A43EA
:101460000282704721B1828942F00202828104E047
:1014700082894FF6FD731A408281704782894FF24C
:10148000FF731A40828182890A4382817047028AEF
:101490004FF6DF731A400282028A0A4302827047C3
:1014A00021B1028A42F48042028204E0028A4BF6B1
:1014B000FF731A4002827047818941F001018181E6
:1014C000704721B1828A42F00802828204E0828A57
:1014D0004FF6F7731A4082827047028BD2B20283B2
:1014E000028B42EA01220283704721B1828A42F0D4
:1014F0002002828204E0828A4FF6DF731A408282E1
:10150000704721B1828A42F01002828204E0828A0E
:101510004FF6EF731A4082827047828A4FF6FB7350
:101520001A408282828A0A438282704721B1828A6B
:1015300042F00202828204E0828A4FF6FD731A4072
:10154000828270471AB1838A0B43838202E0838AC6
:101550008B4383827047F0B50346002400260025A4
:10156000002040F66A17B94200D100BF1846C1F307
:10157000421401F01F06012707FA06F5012C01D1DC
:101580000C3004E0022C01D1103000E014301AB10C
:1015900007682F43076002E00768AF430760F0BDAC
:1015A00002460020B1F5007F00D100BF13880B4038
:1015B0000BB1012000E00020704701F40072B2F589
:1015C000007F00D100BFCA430280704770B5024659
:1015D000002400230025002040F66A16B14200D105
:1015E00000BFC1F3421501F01F03012606FA03F301
:1015F000012D13D19689334017E0000000100140FF
:101600000044004000480040004C004000500040B2
:101610000014014000780040007C0040022D02D1FF
:10162000168A334001E0968A33400C12012606FAEE
:1016300004F41688344013B10CB1012000E00020FE
:1016400070BD10B50022002340F66A14A14200D1FB
:1016500000BF0A1201249440A3B2DC43048010BDF1
:1016600008B500210091491EC26851606FF08041A9
:10167000C2685161009921F0004101F100410091DF
:10168000009921F4006101F5006100910099C268A0
:10169000916108BDF8B504460026002500200090A1
:1016A00000BF032003F0B9F8E06800690090681CEF
:1016B0000546F749884201D90020F8BD0098C00FBF
:1016C0000028EED00025009820F00100401C00907A
:1016D0000098E168086100BFE06800690090681C3C
:1016E0000546EB49884200D904E0009800F001006B
:1016F0000028F1D100BF032003F08FF83046DCE76B
:101700002DE9F04104460026E078B0B9002700201A
:10171000DD1C4FEAE57805EB98784FEAA80704F15D
:10172000D00555F822C000BF04E00D68CCF8005089
:10173000401C091DB842F8D300BF3046BDE8F08117
:10174000F0B503460024D01CC71700EB9777BD10F7
:10175000D3F8D06000BF03E030680860641C091D46
:10176000AC42F9D30846F0BD70B502460C460023E2
:1017700000200025D5700125957040259580012C0D
:101780000CD14FF0A0430125D57208251570042512
:1017900055709D15D580022515720AE04CB9BD4BD8
:1017A0000025D5720C251570062555704FF4A065DF
:1017B000D580D36003F500651561002110E003F5C5
:1017C000106505EB411602F1180545F8216003F597
:1017D000306505EB411602F1540545F82160491CBE
:1017E00055788D42EBD803F5806555614035C2F8D8
:1017F000CC50002108E003F5A06505EB411602F18D
:10180000900545F82160491C15788D42F3D80021D8
:1018100008E003F5805505EB013602F1D00545F8E7
:101820002160491C15788D42F3D803F56065C2F834
:101830000C5170BD3EB50446002500200290019079
:101840000090207A01283DD1E068806B01900198DA
:1018500020F480300190607A28B1019820F4801043
:1018600000F5801001900198E168886300200290E3
:10187000E068C0680290029820F040000290029850
:1018800020F480000290029820F400300290029828
:1018900020F4002002900298E168C8602046FFF71B
:1018A000F9FEE078012843D1009820F01E000A30AC
:1018B0000090009820F02000203000900098E1680F
:1018C000886035E0E068C0680290029820F040002F
:1018D000403002900298E168C8602046FFF7DAFEC7
:1018E00000200190019820F4803000F580300190B4
:1018F000019820F4802000F580200190019820F4C8
:10190000002000F500200190019820F4001000F55F
:1019100000100190607A28B1019820F4801000F541
:10192000801001900198E1688863142002F07BFF29
:10193000E07801280FD1E06880680090009820F0DE
:101940001E000A300090009820F020002030009007
:101950000098E168886028463EBD08B50146002031
:1019600000220092009A22F00102521C0092CA68E2
:101970009268009B1A43CB689A6008BD08B501467F
:10198000002000220092009A22F00102521C0092D4
:10199000CA689268009B9A43CB689A6008BDF8B504
:1019A00004460D460026002700200090009820F0F5
:1019B000200020300090009865F38A100090009875
:1019C000E168086100BFE06800690090781C074684
:1019D0002F49884200D904E00098C0F34010002845
:1019E000F1D100BF032002F018FF3046F8BDF8B572
:1019F00004460025002600200090009820F01000EA
:101A0000103000900098E168086100BFE06800694C
:101A10000090701C06461E49884200D904E00098D8
:101A2000C0F300100028F1D100BF032002F0F5FE42
:101A30002846F8BDF8B504460D460026E068C068A3
:101A40000090009820F000500090009820F0804016
:101A50000090012D06D1009820F0005000F10050B8
:101A6000009006E02DB9009820F0804000F1804001
:101A700000900098E168C860322002F0D4FE304641
:101A8000F8BD0146C868406900F0010070470000D9
:101A9000400D03000000044000B502461046FFF769
:101AA000F0FF012801D0012000BD0020FCE700B5B7
:101AB00002461046FFF7E5FF012800D100BD0020D7
:101AC000FCE701460020CA685069CA689269104064
:101AD00070470146C8684068704738B5044600251D
:101AE00000200090E1688861401EE168486120465E
:101AF000FFF7B6FDE07820B9009820F01000103014
:101B00000090009820F0807000F1807000900098A4
:101B100020F0007000F100700090009820F000505C
:101B200000F100500090009820F00800083000906C
:101B3000009820F4001000F500100090E068806923
:101B4000009988430843E1688861284638BD08B594
:101B50000146D1F8CC0000680090009820F0040005
:101B60000090009820F002000090009820F00800FB
:101B70000090009820F020000090009808BD38B533
:101B800005460C46002000902146284602F043FE00
:101B90002846FFF7DCFF00900098C0F3003058B9EA
:101BA000012C09D1009820F4805000F5805000905D
:101BB0000099D5F8CC0001600098C0F3003040B126
:101BC0003CB9009820F4805000900099D5F8CC00E2
:101BD0000160C82002F027FE38BD38B50446204613
:101BE000FFF7B5FF0090009820F4807000F580703A
:101BF00000900099D4F8CC0001600A2002F013FE96
:101C0000009820F4807000900099D4F8CC00016016
:101C1000142002F008FE012038BD08B542691268A0
:101C20000092009A61F301020092009B42691360E6
:101C300008BDFEB504460026002500200290019054
:101C40000090204602F0E8FD0021D4F80C0101606C
:101C5000207A012803D12046FFF7DFFF03E00121AE
:101C60002046FFF7DAFF2046FFF7B7FF60690068FC
:101C70000090009820F004000090009960690160D5
:101C8000E07A01281DD18020E168486202986FF354
:101C90000F0080300290029880B200F5C0000290E0
:101CA0000298E168886201986FF30F00E0300190BC
:101CB000019880B200F5C00001900198E168C1F878
:101CC000000110212046FFF76AFE2046FFF78FFE35
:101CD00000250DE04FF0FF3104F1900050F8250091
:101CE0008160002104F1900050F82500C1606D1C56
:101CF0002078A842EED801212046FFF740FF204679
:101D0000FFF7EBFE3046FEBD01464869806800F0F3
:101D1000010080F001007047014648694069704742
:101D20003FB502460020002300240294039401944E
:101D3000441E009402F1900454F82140009DA560D7
:101D400000240394D478012C04D1039C24F00404CF
:101D5000241D039402F56B7404EB4114647934B1CF
:101D6000012C6AD0022C03D0032C38D138E000BFFC
:101D7000039C24F00104641C0394039C24F00804D5
:101D800008340394039C24F0800480340394039C5F
:101D900024F4806404F580640394039C24F010040C
:101DA0001034039402F56B7404EB4114A47834B13D
:101DB000039C24F4807404F5807403940FE0039C66
:101DC00024F040044034039402F56B7404EB411496
:101DD000247924B1039C24F02004203403944EE0A1
:101DE000039C24F00104641C0394039C24F010045D
:101DF00010340394039C24F0080408340394039CD7
:101E000024F0800480340394039C24F4806404F55B
:101E100080640394039C24F4007404F50074039418
:101E200002F56B7404EB4114A4782CB1039C24F4E8
:101E3000807404F58074039421E0039C24F0010471
:101E4000641C0394039C24F4007404F5007403944C
:101E5000039C24F020042034039402F56B7404EBFB
:101E60004114A47854B1039C24F08004803403947A
:101E7000039C24F4807404F58074039400BF00BFB5
:101E800002F1900454F82140039DE560012404FA16
:101E900001F35469A4691C435569AC61029C24F0A8
:101EA000007404F100740294D468A469029D2C4368
:101EB000D568AC610024019402F56B7404EB411405
:101EC0002578019C65F39C54019402F56B7404EB36
:101ED00041146578019C65F3CE24019402F56B747E
:101EE00004EB4114A578019C65F3CF34019402F50D
:101EF0006B7404EB4114E478022C01D1012500E05D
:101F00000025019C65F35144019402F56B7404EBC8
:101F100041146579019C65F39344019402F56B7457
:101F200004EB4114E588019C65F30A04019402F571
:101F30006B7404EB41146479032C05D1019C24F0EB
:101F4000005404F10054019402F1900454F821402B
:101F5000019D256004B030BD2DE9F04388B00446F2
:101F60000D464FF00009C8464FF4807700200690D8
:101F70000790009004F56B7000EB4510006910B3FA
:101F800004F56B7000EB4510016904F56B7000EB14
:101F90004510C0880144491E04F56B7000EB4510E4
:101FA000C088B1FBF0F086B2BE420DDD3E4604F5BE
:101FB0006B7000EB4510C188714304F56B7000EB4A
:101FC0004510016100E0012604F56B7000EB45103F
:101FD000807850B104F56B7000EB4510C1887143F7
:101FE00004F56B7000EB4510016104F56B7000EBBC
:101FF00045100169069861F312000690069866F391
:10200000DC40069004F56B7000EB4510017A0698F1
:1020100061F35E70069004F1900050F82500069977
:102020000161E078012809D104F56B7000EB4510DF
:10203000C16804F1900050F82500416104F190005E
:1020400050F82500006807902046FFF75DFE0799CD
:1020500060F35D710791079820F0004000F10040A7
:102060000790079820F08040079004F1900050F806
:10207000250007990160E078002864D104F56B70B1
:1020800000EB4510807800285DD104F56B7000EB03
:1020900045100069002856D004F56B7000EB451020
:1020A000407930B1012821D0022803D0032839D14A
:1020B0001BE000BFE068C06A039004F56B7000EBA2
:1020C00045100069C01CC0F38F08039880B24045DA
:1020D0000ADA009820F0200020300090E068806943
:1020E00000990843E16888611DE000BF60690069EC
:1020F000019004F56B7000EB45100069C01CC0F343
:102100008F08019880B240450BDA009820F080607B
:1021100000F180600090E068806900990843E16800
:10212000886100E000BF00BF04F56B7000EB451054
:10213000008A83B204F56B7000EB45102A46C16833
:102140002046FFF7DDFA484608B0BDE8F08310B539
:1021500086B00246002000230393019302F190030E
:1021600053F821301B680093009B23F0004303F1D8
:1021700000430093009B23F0804303F180430093CE
:10218000009BC3F3814323B1009BC3F38143022B24
:102190000BD1D368DB6A0393039BC3F307437BB97B
:1021A000009B23F0004300930AE053691B690193ED
:1021B000019BC3F307431BB9009B23F0004300932B
:1021C00002F1900353F82130009C1C6006B010BD52
:1021D0001CB50246002000230093009B23F000431F
:1021E00003F1004300930124009B64F3DC4300935C
:1021F00002F1900353F82130009C1C6102F190031E
:1022000053F821301B680193019B23F0004303F135
:1022100000430193019B23F08043019302F190035B
:1022200053F82130019C1C601CBD38B504460021C8
:1022300060698161491E6069416100251AE004F10D
:10224000900050F8250000680090009820F00040B1
:102250000090009820F0804000F1804000900098AD
:1022600020F40040009004F1900050F825000099FF
:1022700001606D1C2078A842E1D82046FFF7B7FB2B
:1022800010212046FFF78BFB38BD70B504460E4683
:1022900000250021C4F8101300BF0BE0002104F555
:1022A000457040F825103C3040F825103C30415531
:1022B000681CC5B20F2DF1DB0821A4F8B21331461A
:1022C0002046FFF751FA2046FFF758FB2046FFF75C
:1022D000B1FA01212046FFF7ADFB2046FFF7A9FC2C
:1022E0002046FFF73AFB002070BD08B50146D1F843
:1022F000CC00006800900098C0F3414008BD10B5C4
:1023000004462046FFF769FC002010BD0146D1F8C5
:102310001003704701464869806880B270470246E2
:1023200002F29B30405C7047024602F5547050F850
:1023300021007047024602F56370405C704770B53B
:1023400004460D4629462046FFF7EAFC70BD70B5ED
:1023500004460D46002104F29B304155113000EB3C
:102360004510416129462046FFF7F6FD70BD00008B
:102370000CB50146D1F8900000680090009820F05C
:10238000004000F100400090009820F0804000F1F3
:1023900080400090009AD1F89000026000200190E7
:1023A000019820F4001000F5001001900198CA680F
:1023B000506101200CBD38B5044600200090FE4855
:1023C0000068816820468847009820F0005000F19E
:1023D000005000900098E1684861012038BDFEB5CA
:1023E0000446002600250020009002900190D4F8B9
:1023F000CC0000680290D4F8CC00006801900198ED
:1024000020F004000190019820F002000190019852
:1024100020F008000190019820F02000019002981F
:10242000C0F3400058B1019820F00200801C0190D8
:10243000E148006841682046884745F00105029858
:10244000C0F3C000002842D0019820F008000830F6
:1024500001900298C0F38000002838D0D648006868
:102460004168204688470298C0F34140022804D0C2
:102470000298C0F34140012828D1606900680090AB
:102480000298C0F34140022811D141F27071606995
:102490004160009800F00300022818D0207A02283A
:1024A00003D102212046FFF7B8FB01260FE04BF6CF
:1024B000803160694160009800F00300012806D077
:1024C00001212046FFF7A9FB012600E00126029822
:1024D000C0F3401030B1019820F02000203001906E
:1024E00045F0010516B12046FFF777FB0199D4F8B6
:1024F000CC0001602846FEBD7FB505460C4605F1BF
:10250000900050F82460B0680390F0680290DDE914
:1025100002100840039005F1900050F82400006874
:1025200001900398C0F38000D0B100200090009883
:1025300020F00400001D00900098B06005F19000AC
:1025400050F82400C0680090009820F00200801C21
:10255000009005F1900050F824000099C160B4E1AA
:102560000398C0F3401048B100200090009820F07C
:102570002000203000900098B060A6E10398C0F3DE
:102580004020F8B105F1900050F82400C068009098
:10259000009820F00200801C009005F1900050F897
:1025A00024000099C160E1B22846FFF7D0FD002069
:1025B0000090009820F4007000F5007000900098E2
:1025C000B06082E1039800F0010038B3002105F506
:1025D000457040F8241005F1900050F82400C068C0
:1025E0000090009820F00200801C009005F19000FF
:1025F00050F824000099C160E1B22846FFF7A7FD1A
:1026000000200090009820F00100401C00900098ED
:10261000B060012105F56370015556E10398C0F3E0
:10262000C00010B300200090009820F0080008308F
:1026300000900098B06005F1900050F82400C06848
:102640000090009820F00200801C009005F190009E
:1026500050F824000099C160E1B22846FFF777FDE9
:10266000052105F5637001552FE10398C0F30010B3
:1026700038B3002105F5457040F8241005F19000AD
:1026800050F82400C0680090009820F00200801CE0
:10269000009005F1900050F824000099C160E1B26B
:1026A0002846FFF754FD00200090009820F010000D
:1026B000103000900098B060032105F5637001555B
:1026C00003E10398C0F3C01040B305F1900050F847
:1026D0002400C0680090009820F00200801C009048
:1026E00005F1900050F824000099C160E1B228463D
:1026F000FFF72DFD05F5457050F82410491C40F8F2
:10270000241006217830015500200090009820F018
:102710008000803000900098B060D6E00398C0F34D
:10272000801038B3002105F5457040F8241005F1FC
:10273000900050F82400C0680090009820F002003B
:10274000801C009005F1900050F824000099C160B1
:10275000E1B22846FFF7FBFC00200090009820F033
:102760004000403000900098B060042105F563708F
:102770000155AAE00398C0F3802078B305F19000DA
:1027800050F82400C0680090009820F00200801CDF
:10279000009005F1900050F824000099C160E1B26A
:1027A0002846FFF7D4FC00200090009820F010008D
:1027B00010300090009801E03C000020B06008213B
:1027C00005F56370015500200090009820F48060AA
:1027D00000F5806000900098B06076E0FFE7039815
:1027E000C0F34000002870D005F1900050F824009C
:1027F000C0680090009820F00200009005F1900061
:1028000050F824000099C16005F56370005D01284F
:1028100015D1012105F29B3001550198C0F381408B
:10282000022848D105F56B7000EB4410407E80F023
:10283000010105F56B7000EB441041763BE005F5B6
:102840006370005D032804D1022105F29B3001551D
:1028500031E005F56370005D04280FD105F56B705C
:1028600000EB44100079012803D1E1B22846FFF7BC
:10287000AFFC022105F29B3001551CE005F56370A9
:10288000005D052804D1042105F29B30015512E0BA
:1028900005F56370005D06280DD105F5457050F80B
:1028A0002400032807D1032105F29B3001550021A4
:1028B000873840F8241000200090009820F0020093
:1028C000801C00900098B06000BF012004B070BD73
:1028D00070B586B005460C4605F1900050F82460AE
:1028E000B0680590F0680490DDE904100840059098
:1028F00005F1900050F82400006803900020049037
:102900000598C0F38000D0B100200190019820F01C
:102910000400001D01900198B06005F1900050F88E
:102920002400C0680190019820F00200801C0190F2
:1029300005F1900050F824000199C16073E00598FA
:10294000C0F3401048B100200190019820F0200011
:10295000203001900198B06065E00598C0F3C00098
:1029600078B305F1900050F82400C06801900198F8
:1029700020F00200801C019005F1900050F8240026
:102980000199C160052105F5637001550020019092
:10299000019820F01000103001900198B0600020E4
:1029A0000190019820F00800083001900198B06073
:1029B000059820F010000590E1B22846FFF7C7FB0C
:1029C00031E0FFE70598C0F3802060B305F1900087
:1029D00050F82400C0680190019820F00200801C8B
:1029E000019005F1900050F824000199C160E1B216
:1029F0002846FFF7ACFB00200190019820F0100062
:102A0000103001900198B060082105F56370015500
:102A100000200190019820F4806000F58060019012
:102A20000198B06000BF0598C0F34020F8B105F1EF
:102A3000900050F82400C0680190019820F0020036
:102A4000801C019005F1900050F824000199C160AC
:102A5000E1B22846FFF77BFB00200190019820F4AB
:102A6000007000F5007001900198B06042E1059897
:102A700000F00100002871D0E878012812D105F19A
:102A8000900050F824000069029005F56B7000EB8F
:102A9000441000690299C1F31201411A05F55470FE
:102AA00040F82410012105F56370015500217838A4
:102AB00040F8241000200190019820F00100401CF3
:102AC00001900198B0600398C0F3814020B1039851
:102AD000C0F3814002282AD105F1900050F824006B
:102AE000C0680190019820F00200801C019005F15F
:102AF000900050F824000199C160E1B22846FFF728
:102B000026FB00200190019820F010001030019069
:102B10000198B06005F56B7000EB4410007E80F00A
:102B2000010105F56B7000EB44100176E2E00398BB
:102B3000C0F38140032899D1039820F0005000F1A0
:102B40000050039005F1900050F8240003990160B3
:102B5000012105F29B300155CCE0FFE70598C0F359
:102B60004000002851D005F1900050F82400C068C2
:102B70000190019820F00200019005F1900050F8BA
:102B800024000199C16005F56370005D012804D13E
:102B9000012105F29B3001552DE005F56370005DC4
:102BA000052804D1042105F29B30015523E005F5E9
:102BB0006370005D062804D005F56370005D082889
:102BC00008D1002105F5457040F824100321873015
:102BD000015510E00398C0F3814003280BD105F59F
:102BE0006B7000EB4410007E80F0010105F56B7006
:102BF00000EB4410017600200190019820F00200C3
:102C0000801C01900198B06074E00598C0F3C0107A
:102C100040B305F1900050F82400C068019001987D
:102C200020F00200801C019005F1900050F8240073
:102C30000199C16005F5457050F82410491C40F811
:102C40002410062178300155E1B22846FFF77FFABB
:102C500000200190019820F08000803001900198C0
:102C6000B06047E00598C0F30010E8B30398C0F3E4
:102C70008140032815D105F1900050F82400C06868
:102C80000190019820F00200801C019005F1900055
:102C900050F824000199C160E1B22846FFF757FAC5
:102CA00018E00398C0F3814020B10398C0F381403D
:102CB00002280FD1039820F0004000F1004003905B
:102CC000039820F08040039005F1900050F8240014
:102CD00003990160032105F56370015500200190FF
:102CE000019820F0100000E004E0103001900198FD
:102CF000B06000BF012006B070BD7CB50546002461
:102D000000262846FFF708F8019000BF1BE0019855
:102D100080B20121A1400840A0B105F1900050F817
:102D20002400006800900098C0F3C03028B121460C
:102D30002846FFF7CDFD064304E021462846FFF76D
:102D4000DBFB0643641C2878A042E0D830467CBDFB
:102D5000FEB504466069006900900198C0F3C301A4
:102D600004F56B7000EB41100069C01CC0F38F06C6
:102D700074E04FF6FF71009801EA80050198C0F3F6
:102D8000C30104F56B7000EB41100069A84216D234
:102D90000198C0F3C30104F56B7000EB4110008A89
:102DA00085B200200290029820F0806000F18060DF
:102DB0000290E068806902998843E168886101981F
:102DC000C0F3C30104F56B7000EB41100069C01C37
:102DD000C0F38F060198C0F3C302C0F3C30304F528
:102DE0006B7000EB43102B46C1682046FEF788FC51
:102DF0000198C0F3C30104F56B7000EB4110C0688B
:102E000041190198C0F3C30204F56B7000EB421046
:102E1000C1600198C0F3C30104F56B7000EB411071
:102E20000069411B0198C0F3C30204F56B7000EB0D
:102E3000421001610198C0F3C30104F56B7000EB0F
:102E40004110406941190198C0F3C30204F56B7049
:102E500000EB42104161606900690090009880B207
:102E6000B0420ADD0198C0F3C30104F56B7000EBBA
:102E70004110006900287FF47CAF0120FEBD7FB5C2
:102E80000446E068C06A00900198C0F3C30104F5ED
:102E90006B7000EB41100069C01CC0F38F0673E03B
:102EA0004FF6FF71009801EA80050198C0F3C30155
:102EB00004F56B7000EB41100069A84215D201982F
:102EC000C0F3C30104F56B7000EB4110008A85B2BA
:102ED00000200390039820F0200020300390E06849
:102EE000806903998843E16888610198C0F3C30150
:102EF00004F56B7000EB41100069C01CC0F38F0635
:102F00000198C0F3C302C0F3C30304F56B7000EB78
:102F100043102B46C1682046FEF7F2FB0198C0F330
:102F2000C30104F56B7000EB4110C06841190198B2
:102F3000C0F3C30204F56B7000EB4210C16001984E
:102F4000C0F3C30104F56B7000EB41100069411B35
:102F50000198C0F3C30204F56B7000EB42100161ED
:102F60000198C0F3C30104F56B7000EB4110406998
:102F700041190198C0F3C30204F56B7000EB4210D5
:102F80004161E068C06A0090009880B2B0420ADDFA
:102F90000198C0F3C30104F56B7000EB41100069A8
:102FA00000287FF47DAF012004B070BD30B585B03E
:102FB0000446002000900390039820F01000103089
:102FC0000390E068806903998843E1688861E0685C
:102FD000006A0490049800F00F00009004F1900043
:102FE0009DF8001050F82100006801900498C0F38B
:102FF0004340022806D0032878D0052877D0072838
:1030000073D175E00498C0F30A10002869DD04F557
:103010006B709DF8001000EB4110C068002860D074
:103020000498C0F30A1204F56B709DF8003000EBB1
:103030004310C1682046FEF783FB049800F00F019F
:1030400004F56B7000EB4110C0680499C1F30A11DC
:103050000144049800F00F0204F56B7000EB42107D
:10306000C160049800F00F0104F56B7000EB411093
:1030700040690499C1F30A110144049800F00F0259
:1030800004F56B7000EB4210416104F56B709DF824
:10309000001000EB4110456904F554709DF80010D4
:1030A00040F8215004F190009DF8001050F82100E4
:1030B000006902900298C0F3C940002811DD019810
:1030C00020F0004000F100400190019820F0804085
:1030D000019004F190009DF80020019950F8220021
:1030E000016006E002E002E0FFE700BF00BF00BFB2
:1030F00000BF00BF039820F0100010300390E0687C
:10310000806903990843E1688861012005B030BDFA
:1031100038B5044600200090314800680168204618
:103120008847009820F00800083000900098E16877
:103130004861012038BD38B50546002400200090C4
:103140002846FEF7B4FC002847D02846FEF7B9FC15
:103150000090009808B9002038BD0098C0F3C00066
:1031600018B12846FFF7D4FF04430098C0F30010BD
:1031700018B12846FFF71AFF04430098C0F3401027
:1031800018B12846FFF77BFE04430098C0F3806027
:1031900018B12846FFF7DCFD04430098C0F34060F7
:1031A00018B12846FFF7A9FD04430098C0F300605A
:1031B00018B12846FFF713F904430098C0F3407094
:1031C00018B12846FFF7F7F804430098C0F34050C1
:1031D00018B12846FFF7CCF804432046BCE70000AE
:1031E0003C00002001460122C1F810230020704756
:1031F00001460022C1F8102300207047014600203C
:10320000704770B505460C46002020706070A070B5
:103210000120E070012121774021A171002084F874
:1032200020000121212001552179284600F0B3FB1F
:103230006179284600F0AFFB002070BD2DE9F04118
:1032400006460F4614461D46DDF81880304601F04C
:1032500097FA002001F0E0FA21463046FFF7D1FF4F
:10326000E567C4F8808039463046FFF70EF8D4F899
:10327000801008688047304601F0BAFABDE8F08156
:103280002DE9F04106460C464FF0000800250021CC
:10329000A174207F0C2876D2DFE800F0FD060F3DF8
:1032A000466576919AC0D7ED627904F114013046F3
:1032B00000F0CCFB02212177EEE061793046FFF788
:1032C0002EF80546012D1FD1207D00F08007608B70
:1032D00058B141F28830FE490880802F02D1032185
:1032E00021770CE00521217709E03220F849088098
:1032F000802F02D10921217701E007212177304673
:10330000FFF708F8208205E0032D03D10B21217778
:103310000521A174C0E02379A2893046A16800F09C
:10332000EDFB04212177B7E021793046FEF7F7FF66
:103330000546012D01D109212177042D02D16078A4
:1033400020700FE0032D02D10B2121770AE03046D7
:10335000FEF7E0FF218A401ADD490988884201D939
:103360000B21217798E00121627906F56B7000EB63
:10337000421041766379A2893046A16800F087FB4C
:103380000621217788E086E061793046FEF7C7FFA5
:103390000546012D02D1072121770FE0042D04D12C
:1033A000607820700C21217708E0022D02D10521E0
:1033B000217703E0032D01D10B2121776CE02379E4
:1033C00000221146304600F099FB0821217763E086
:1033D00021793046FEF7A3FF0546012D04D1607820
:1033E00020700D21217718E0032D02D10B212177C8
:1033F00013E03046FEF78EFF218A401AB44909884F
:10340000884202D90B21217707E0042D05D160788D
:1034100020700421A1744FF003083DE0617906F5A6
:103420006B7000EB4110407E80F00101627906F57F
:103430006B7000EB421041766379002211463046F2
:1034400000F025FB0A21217726E061793046FEF75E
:1034500066FF0546012D04D1607820700D2121778B
:1034600008E0022D02D10921217703E0032D01D1CB
:103470000B21217710E0A07B401CC1B2A17302296F
:1034800002DC0121217705E00821A1746078207019
:103490004FF0020800E000BF00BF4046BDE8F081E9
:1034A00070B504460D46052D01D0042D06D1D4F883
:1034B0008010486C80470A20207007E0062D05D157
:1034C0000A202070D4F880100868804770BD70B55D
:1034D00092B005460C460126A0780A287AD2DFE889
:1034E00000F00528375D667A97B4D1DB08222146C3
:1034F000284600F08FFCD8B994F82910A17128460D
:10350000FEF7FDFE0120A070A0790021CDE900109A
:10351000617900231A46284600F0E4F9A0790021D9
:10352000CDE90010217900231A46284600F0DAF987
:10353000B5E012222146284600F06CFC38B9D4F8D8
:103540008000C16904F1220088470220A070A6E033
:1035500001222146284600F093FDF0B9022001F037
:1035600062F90120A41CA077D4F87E10086A804775
:1035700003202070002000900190A27FA1780346D4
:10358000284600F0AFF9002000900190A27FA41E11
:1035900061790346284600F0A5F980E0092221461A
:1035A000284600F008FD08B90420A07077E0E28EFC
:1035B0002146284600F0FFFC58B9D4F8800004F1F9
:1035C000500204F13E01436A04F13400984705209B
:1035D000A07064E062E094F8300088B1FF200090B1
:1035E00094F8302002AB2146284600F02BFD70B93C
:1035F000D4F88000816A02A888470620A07006E0FF
:10360000D4F88000816A33A088470620A07046E085
:1036100094F8310088B1FF20009094F8312002AB7B
:103620002146284600F00EFD70B9D4F88000C16A2A
:1036300002A888470720A07006E0D4F88000C16A7D
:1036400024A088470720A07029E094F8320088B1B0
:10365000FF20009094F8322002AB2146284600F06B
:10366000F1FC70B9D4F88000016B02A888470820EB
:10367000A07006E0D4F88000016B16A088470820EF
:10368000A0700CE094F839202146284600F00BFD8C
:1036900008B90920A07002E0002600E000BF00BFCA
:1036A000304612B070BD3EB505460C460220029071
:1036B0002846FEF72BFE30B9207820B1207802286A
:1036C00001D00220207020780B286FD204E0000087
:1036D000400000204E2F4100DFE800F006109CB4AF
:1036E0004D697B87598C8D002846FEF70FFE20B16F
:1036F00001202070642001F096F8A4E0D4F8801036
:10370000886880470021284600F032F960718021E6
:10371000284600F02DF920712846FEF7F0FD48BB41
:10372000D4F88010C86880472846FEF7DEFDC1B295
:1037300021200155042020702122105DD4F8802022
:1037400091698847A0790021CDE900102120035D0F
:1037500094F820202179284600F077F8A0790021FC
:10376000CDE900102120035D94F8202061792846DE
:1037700000F06BF867E021462846FFF7A8FE28B95D
:10378000D4F88010486B8047082020705BE0D4F8A4
:103790008010886B8047012807D1E06F21460268BE
:1037A0002846904708B9052020704CE04AE0E06FB9
:1037B000214682682846904702909DF8080010B97B
:1037C0000620207004E09DF808102046FFF768FEF0
:1037D00039E0E06F2146C2682846904702909DF884
:1037E00008102046FFF75CFE2DE021462846FFF733
:1037F00047FD28E027E021462846FFF702FDD4F8E0
:10380000801048688047E06F04F120014268284634
:10381000904718E0D4F88010086980472146284670
:10382000FFF7EFFCD4F8801048688047E06F04F1A0
:103830002001426828469047284600F0BBF8002047
:10384000207000E000BF00BF3EBD2DE9F0470446F8
:103850000D4617461E46DDE9088904F28C5010F823
:10386000150000F07F0104F56B7000EB451041700E
:1038700004F28C5010F81500C0F3C01104F56B7001
:1038800000EB4510817004F56B7000EB451007707C
:1038900004F56B7000EB451080F8058004F56B7043
:1038A00000EB4510A0F8069004F56B7000EB451096
:1038B000C670002104F56B7000EB4510017604F52D
:1038C0006B7000EB451041762EB9012104F56B7049
:1038D00000EB4510017129462046FEF721FA002031
:1038E000BDE8F0872DE9F04704460D4617461E4611
:1038F000DDE9089827B104F56B7000EB45100770FF
:1039000004F56B7000EB4510C088404508D0B8F155
:10391000000F05D004F56B7000EB4510A0F8068091
:1039200004F56B7000EB4510C078B04205D026B1AD
:1039300004F56B7000EB4510C67029462046FEF773
:10394000EFF90020BDE8F0870246002100BF0AE041
:1039500002F28C5030F8110000F4004008B908461B
:103960007047481CC1B20829F2DB4FF6FF70F7E739
:1039700070B505460E462846FFF7E6FF04464FF6AB
:10398000FF70844205D046F4004105F28C5020F8C7
:103990001410E0B270BD0246082909DA02F28C5018
:1039A00030F81100C0F30E0302F28C5020F81130F1
:1039B000002070470246022106E0002302F28C50EC
:1039C00020F81130481CC1B20829F6DB00207047EE
:1039D00010B50346187858700720187099609A81BE
:1039E00001241C77002010BD2DE9F04180460C46D3
:1039F00015461E460127E078012802D0022820D172
:103A000008E0324629462046FFF7E2FF0220E07038
:103A1000012717E0207F0D2805D10120E07000214B
:103A2000217700270CE0207F0B2803D10120E070D4
:103A3000022705E0207F0C2802D10120E070032737
:103A400000E000BF00BF3846BDE8F08170B5054614
:103A50000E461446002105F56B7000EB4410817092
:103A6000032105F56B7000EB4410017205F56B70D6
:103A700000EB4410C660082105F56B7000EB4410A4
:103A8000016121462846FEF762FCC0B270BD2DE9F7
:103A9000F04105460F4616461C46002105F56B70A1
:103AA00000EB4410817005F56B7000EB4410C760AB
:103AB00005F56B7000EB441006612EB9012105F588
:103AC0006B7000EB4410417605F56B7000EB441011
:103AD000407E30B9002105F56B7000EB4410017297
:103AE00005E0022105F56B7000EB441001722146E0
:103AF0002846FEF72CFC0020BDE8F0812DE9F041BE
:103B000005460E4617461C46012105F56B7000EB75
:103B100044108170022105F56B7000EB44100172B6
:103B200005F56B7000EB4410C66005F56B7000EB9B
:103B30004410076121462846FEF709FC0020BDE835
:103B4000F0812DE9F04105460E4617461C4600213E
:103B500005F56B7000EB4410817005F56B7000EBA0
:103B60004410C66005F56B7000EB4410076105F565
:103B70006B7000EB4410407E28B905F56B7000EBCC
:103B80004410017205E0022105F56B7000EB441052
:103B9000017221462846FEF7DAFB0020BDE8F081DD
:103BA0002DE9F04105460E4617461C46012105F554
:103BB0006B7000EB4410817005F56B7000EB4410E6
:103BC000C66005F56B7000EB4410076105F56B707E
:103BD00000EB4410007E30B9002105F56B7000EB5E
:103BE0004410017205E0022105F56B7000EB4410F2
:103BF000017221462846FEF7AAFB0020BDE8F081AD
:103C00002DE9F04105460E4617461C46012105F5F3
:103C10006B7000EB4410817005F56B7000EB441085
:103C2000C66005F56B7000EB4410076105F56B701D
:103C300000EB4410007E30B9002105F56B7000EBFD
:103C40004410017205E0022105F56B7000EB441091
:103C5000017205F56B7000EB4410007E80F00101ED
:103C600005F56B7000EB4410017621462846FEF7FF
:103C70006EFB0020BDE8F0812DE9F04105460E46BF
:103C800017461C46002105F56B7000EB441081704F
:103C900005F56B7000EB4410C66005F56B7000EB2A
:103CA0004410076105F56B7000EB4410007E28B9E5
:103CB00005F56B7000EB4410017205E0022105F57B
:103CC0006B7000EB4410017205F56B7000EB441053
:103CD000007E80F0010105F56B7000EB4410017669
:103CE00021462846FEF733FB0020BDE8F0812DE990
:103CF000F04105460E4617461C46012105F56B703E
:103D000000EB4410817005F56B7000EB4410C66049
:103D100005F56B7000EB44100761002105F56B7031
:103D200000EB4410017221462846FEF710FB0020EC
:103D3000BDE8F0812DE9F04105460E4617461C46C8
:103D4000002105F56B7000EB4410817005F56B7078
:103D500000EB4410C66005F56B7000EB4410076182
:103D600005F56B7000EB4410017221462846FEF702
:103D7000EEFA0020BDE8F08110B50B7803704B78A7
:103D800043708C78CB7804EB032343800B79037169
:103D90004B7943718B798371CB79C371082A16DD16
:103DA0000C7A4B7A04EB032303818C7ACB7A04EBF5
:103DB000032343810C7B4B7B04EB032383818B7BAD
:103DC0008373CB7BC3730B7C03744B7C437410BD38
:103DD0002DE9F04780460C4616461D46DDE908975A
:103DE00046F08001217506216175E58205F47F406A
:103DF000B0F5407F03D140F20941218301E0002169
:103E0000218367833B464A4621464046FFF7ECFD47
:103E1000BDE8F0872DE9FC4104460D46164604F541
:103E200088704FF4807300222946CDE900062046B1
:103E3000FFF7CEFF070006D1324604F5887105F181
:103E40002200FFF799FF3846BDE8FC810A7802702E
:103E50004A7842708A788270CA78C2700B794A793F
:103E600003EB022282808A79827170470A7802709D
:103E70004A7842708A788270CA78C2700A79027170
:103E80004A7942718A798271CA79C2710A7A027258
:103E9000704710B502460B88147823440B801378C2
:103EA000981810BD2DE9F04F85B006468946924618
:103EB0001D462C460027B84600BF28783070687829
:103EC0007070A978E87801EB002070802879307153
:103ED00068797071A879B071E879F071287A3072D8
:103EE0000E98092864DD09200090307902285ADCF8
:103EF000BB4653E069462046FFF7CBFF0446607897
:103F000004284BD1A07847B207EBC70000EB090BA0
:103F1000E078032842DA214602A8FFF7A7FF4FF016
:103F200000089DF80C00022838DC32E06946204683
:103F3000FFF7AFFF0446607805282AD10AEB071087
:103F400000EBC80001907F480078B84206D07D4958
:103F50000F7002A95846FFF789FF0CE021796079BC
:103F600001EB002078490988884200DA15E002A9AF
:103F70005846FFF77BFF21460198FFF767FF21793D
:103F8000607901EB00207049088008F101004FFAC8
:103F900080F89DF80C004045C8DC00BF7088BDF873
:103FA00000108842A6DC0020674908806549087037
:103FB00005B0BDE8F08F2DE9FC4104460D461646DC
:103FC000002704F588704FF4007300222946CDE9DC
:103FD00000062046FFF7FCFE5FEA000814D106E069
:103FE00004F58870C05D5949C855781C87B2B7423E
:103FF000F6DB04F5887305F1500205F13E0105F189
:1040000034000096FFF74EFF4046BDE8FC8130B516
:1040100013464578032D14D10578AD1E9D4202DC70
:104020000578AD1E00E01D46ACB2801C002204E005
:10403000855C0D70491C951CAAB2A242F8DB0025D4
:104040000D7030BD2DE9FC470446884615461E46D6
:104050000A9F04F5887045F4407300224146CDE97B
:1040600000072046FFF7B4FE5FEA000905D13A4693
:10407000314604F58870FFF7CAFF4846BDE8FC8763
:1040800070B506460C46154600212175052161755F
:10409000E58200212183618300231A4621463046B0
:1040A000FFF7A2FC70BD70B506460C461546002110
:1040B000217509216175E582002121836183002337
:1040C0001A4621463046FFF78FFC70BD2DE9F041BE
:1040D00007460C4615461E46012121750B216175C8
:1040E000E68225830021618300231A462146384653
:1040F000FFF77AFCBDE8F0812DE9F04105460C465A
:1041000016461F4602212175012161750021E182B9
:104110002683618306F08000802805D105F56B7049
:1041200000EB4710017605E0002105F56B7000EB10
:104130004710417600231A4621462846FFF754FCD3
:10414000BDE8F0814400002042000020E807002084
:104150002DE9FC4707460E46344600254FF001097D
:104160000620FE4981F8420094F8440001287DD1E0
:1041700094F84500012802D1F948086506E094F852
:104180004500022802D1F748F44908650020F349A8
:1041900081F8420081F8450094F8520081F8480007
:1041A000B4F85400A1F8460094F85600A1F84A006B
:1041B0000846B0F84A000A2802DA0A20A1F84A00A4
:1041C00094F84200022802DC94F8420000E0022049
:1041D0008046002552E004F1500000EBC5008078D5
:1041E00000F0800018B304F1500000EBC5008078A7
:1041F000DA4981F8440004F1500000EBC5008178F1
:104200003846FFF7B5FBD54981F840000846B0F8BD
:1042100046000321CDE900102120035D94F8202001
:10422000CE4890F840103846FFF70FFB24E004F129
:10423000500000EBC5008078C84981F8430004F1C4
:10424000500000EBC50081783846FFF791FBC34969
:1042500081F841000846B0F846000321CDE900107E
:104260002120035D94F82020BC4800E00DE090F888
:1042700041103846FFF7E9FA681CC5B24545AADB8C
:104280000020B9490870814603E0D4F88010086C1A
:1042900080474846BDE8FC8770B504460D46AF48E8
:1042A00090F8400078B1AD4890F840102046FDF7F6
:1042B0004EFFAA4890F840102046FFF76CFB002004
:1042C000A64981F84000A54890F8410078B1A3487C
:1042D00090F841102046FDF73AFFA04890F84110B1
:1042E0002046FFF758FB00209C4981F84100002040
:1042F0009D49087070BD70B506460C4615462121D3
:1043000021750B21617515B10021E18201E00121C8
:10431000E18200212183618300231A462146304631
:10432000FFF762FB70BD2DE9F04107460C461546CC
:104330001E46212121750A21617546EA0521E18287
:10434000002121836421618300231A4621463846D7
:10435000FFF74AFBBDE8F0812DE9FC4104460E461B
:10436000154604F588704FF4085301223146CDE913
:1043700000052046FFF72CFD07463846BDE8FC81C6
:104380000A7802704A7842708B78CA7803EB02226E
:1043900042800A7902714A7942718A798271CB79B5
:1043A0000A7A03EB0222028170472DE9FC410446A0
:1043B0000E46154604F588704FF404530122314629
:1043C000CDE900052046FFF703FD07463846BDE866
:1043D000FC812DE9F04104460D462F464FF00108BF
:1043E00001265E4890F84500052841D2DFE800F03C
:1043F00003140420340000BF092239462046FFF789
:10440000D4FF40B904F588715848FFF7B9FF01207F
:10441000524981F845002CE054480289394620462B
:10442000FFF79AFF18B903204C4981F8450020E0B6
:104430000023642239462046FFF775FF064626B959
:104440000420464981F8450005E0032E03D10420ED
:10445000424981F845000CE0002239462046FFF72A
:104460004AFF20B900203D4981F84500804600E020
:1044700000BF00BF4046BDE8F0812DE9F041054690
:104480000C4626460027354890F8420030B10328F4
:1044900017D004280BD0052873D129E02F49096DC6
:1044A0000868804704202D4981F8420000BF284653
:1044B000FDF72AFC012803D10320284981F8420096
:1044C00060E0264890F8403090F8462001462846A3
:1044D000FFF796FB01202449087005201F4981F849
:1044E00042002846FDF716FF1C49A1F84C0049E0A0
:1044F0002846FDF70FFF1949B1F84C10401A17492B
:10450000B1F84A10884204D30320144981F84200CC
:1045100036E0124890F840102846FDF700FF0128C9
:104520000CD11148007801282AD100200E490870CA
:104530000A48006D41680948884721E0074890F81B
:1045400040102846FDF7EBFE042819D1034890F8E7
:10455000403090F84820314628460AE0E80900201B
:10456000640000208800002050000020840A002001
:1045700007E0FFF7C1FD18B90320114981F8420097
:1045800000E000BF00BF3846BDE8F0812DE9F047EC
:1045900080460C4615461E46DDE908792121217525
:1045A0000921617546EA0521E182002121836783A3
:1045B0003B464A4621464046FFF716FABDE8F087DB
:1045C000E809002010B500F002FA10BD2DE9F04115
:1045D0000546002047490870474908704749087058
:1045E000474908702878022802D02878202803D16B
:1045F00001204449087002E00020424908704FF051
:10460000000802240CE0285D012805D0285D02285E
:1046100002D0285D032801D14FF00108601CC4B20C
:10462000082CF0DBB8F1010F01D1BDE8F0810020CA
:10463000304908703049087002242AE0285D30B300
:10464000285D31492B4A127888542A480078401C4A
:1046500028490870002607E0285D2C49895D8842BA
:1046600000D105E0701CC6B2244800788642F3DB16
:1046700000BF22480078864209D1285D24491E4A9D
:10468000127888541C480078401C1B490870601C34
:10469000C4B2082CD2DB18480078012817D11C4876
:1046A00000781749087017480078012805D1194883
:1046B0000978405C18490F5C05E0164810490978F4
:1046C000405C16490F5C384600F02FFA02E00020EB
:1046D0000B4908700748007808490870002405E075
:1046E0000948005D09490855601CC4B2062CF7DB77
:1046F00000BF9AE780000020810000208200002097
:104700007F0000206C0000206D0000207900002058
:1047100073000020245300088E5400080C54000835
:1047200010B500F050F910BD10B504461248B0F8AD
:10473000460006280ED120781049C87060780870AD
:10474000E0780001A17840EA21100C4948702079F6
:1047500088700DE00848B0F84600042808D1207899
:104760000649C87060780870A0784870E078887052
:10477000024800F030F910BDE80900208400002054
:104780001CB5044601210846FCF7ECFB0121802002
:10479000FCF7F9FB4FF4C050009002208DF80400A4
:1047A00000208DF8060003208DF8050000208DF80C
:1047B000070069461F48FCF737F94FF400400090A6
:1047C00001208DF8040000208DF807006946194883
:1047D000FCF72AF90120184908600A220B21154824
:1047E000FCF7ADF90A220C211248FCF7A8F91CBD10
:1047F00038B5044643208DF8000000208DF80100F4
:1048000003208DF8020001208DF803006846FCF7B4
:104810001AF838BD70477047704710B504462046F7
:10482000FBF7E0FE10BD10B50446A0B2FBF722FF77
:1048300010BD000000000240BC02404210B5D54847
:10484000FEF779FC10BD10B5D3A000F0E1FAD8A0B6
:1048500000F0DEFADEA000F0DBFA10BD10B5E4A037
:1048600000F0D6FA10BD10B5E7A000F0D1FA002094
:10487000E949087010BD10B5E8A000F0C9FA10BDF4
:1048800010B504461CB9E9A000F0C2FA0EE0012CF4
:1048900003D1EBA000F0BCFA08E0022C03D1EDA09C
:1048A00000F0B6FA02E0F0A000F0B2FA10BD70B568
:1048B000044625462989EFA000F0AAFA6989F1A0EB
:1048C00000F0A6FA70BD10B5F2A000F0A1FA10BD7C
:1048D0002DE9F04106460C4617462546687908281A
:1048E00003D1F1A000F094FA05E06879032802D121
:1048F000F2A000F08DFABDE8F08110B50446214623
:10490000F1A000F085FA10BD10B504462146F3A0D1
:1049100000F07EFA10BD10B504462146F3A000F069
:1049200077FA10BD10B5F6A000F072FA10BD70470E
:1049300010B5F8A000F06CFA0120B749087010BD5E
:1049400010B5F9A000F064FA10BD10B5FBA000F09E
:104950005FFA10BD10B5FDA000F05AFA10BD10B5F9
:104960000446207807281DD1A07810B1A07801282E
:1049700018D1FC480088401CFA4908800846008885
:10498000B0F5FA6F11DD0020088001218020FCF7CE
:10499000FAFA0520FBF76EFE00218020FCF7F3FAFF
:1049A000012010BD0020EF4908800020F9E70246F1
:1049B00091F8403002F56370C05C082801D10120F5
:1049C00070470020FCE70120E7490870704701208C
:1049D000E5490870704710B50446E348007840B1D7
:1049E0000020E1490870E1490880E1490880E14977
:1049F0000880207840B2DF490988084400B2DD49C8
:104A000008800846B0F9000042F20F71884202DDCA
:104A10000846D8490880D748B0F90000D6498842EE
:104A200003DA4DF6F100D3490880607840B2D049EE
:104A30000988084400B2CE4908800846B0F9000051
:104A400042F20F71884202DD0846C9490880C84811
:104A5000B0F90000C849884203DA4DF6F100C449B4
:104A60000880A07840B2C1490988084400B2BF4913
:104A700008800846B0F9000042F20F71884202DD5A
:104A80000846BA490880B948B0F90000BA498842D6
:104A900003DA4DF6F100B5490880B8A1B94800F035
:104AA000C3F9E07800F0010018B1B7A1B54800F0F3
:104AB00023FBE07800F00300022804D1B4A1B14840
:104AC00000F01AFB08E0E07800F00300032803D1AF
:104AD000B1A1AC4800F010FBE07800F0070004281A
:104AE00004D1AFA1A74800F007FB08E0E07800F090
:104AF0000700042803DDABA1A24800F0FDFA9D48A1
:104B0000B0F90020A9A19F4800F08EF99848B0F9AB
:104B10000020A9A19B4800F087F99448B0F9002033
:104B2000A8A1984800F080F910BD38B504468E4819
:104B3000007820B100208C490870A54908802246E1
:104B4000A4A1684600F070F90020A44908600BE0B9
:104B5000A24A12681DF80210A148FCF771FC9F4898
:104B60000068401C9D4908609C4800680428EFDBF1
:104B7000202C0EDB7E2C0CDC954801880088401C24
:104B8000934A10807F48445400207E4912888854FC
:104B900037E127E174010020555342204F5447204C
:104BA0004653204D534320486F73740D0A00000094
:104BB0003E2055534220486F7374206C69627261C5
:104BC000727920737461727465642E0D0A0000009E
:104BD000202055534220486F7374204C69627261E3
:104BE00072792076322E312E300D0A0D0A00000027
:104BF000BCECB2E2B5BD555342C9E8B1B8B2E5C8A4
:104C0000EB210D0A00000000555342C9E8B1B8B0CD
:104C1000CEB3F6210D0A000090000020B8B4CEBB40
:104C2000C9E8B1B82E2E2E0D0A000000B8DFCBD98E
:104C300028485329555342C9E8B1B8210D0A00004C
:104C4000C8ABCBD928465329555342C9E8B1B8213E
:104C50000D0A0000B5CDCBD9284C5329555342C974
:104C6000E8B1B8210D0A0000C9E8B1B8B4EDCEF33F
:104C7000210D0A005649443A2025303458680D0A5F
:104C8000000000005049443A2025303458680D0A8D
:104C900000000000B4D3BBFAB5D8D6B7B7D6C5E488
:104CA000B3C9B9A6210D0A00BFC9D2C6B6AFB4E6D2
:104CB000B4A2C6F7C9E8B1B8210D0A00484944209A
:104CC000C9E8B1B8210D0A004D616E756661637463
:104CD000757265723A2025730D0A000050726F6478
:104CE0007563743A2025730D0A00000053657269DC
:104CF000616C204E756D6265723A2025730D0A0055
:104D0000C9E8B1B8C3B6BED9CDEAB3C9210D0A0D01
:104D10000A000000CCF8B9FDD3C3BBA7C8B7C8CF01
:104D2000B2BDD6E8210D0A00B6CBBFDAB5E7C1F7B0
:104D3000B9FDB4F32121210D0A000000D6D8D0C25C
:104D4000B3F5CABCBBAF2121210D0A00CEDEB7A846
:104D5000BBD6B8B4B5C4B4EDCEF32121210D0A0DF4
:104D60000A000000E400002098000020EA00002073
:104D7000E8000020E6000020F1D8FFFF425554541F
:104D80004F4E3A00900A00204C4546540000000067
:104D900052494748540000002B52494748540000EC
:104DA0004D4944002B4D4944000000005820504F0D
:104DB000533A2530356400005920504F533A25307E
:104DC000356400005A20504F533A253035640000B6
:104DD000EC00002025303258000000009400002034
:104DE000001001400D2C0CD10648008820B1054868
:104DF0000088401E0349088000200349014A1288A8
:104E0000885438BDEC000020900A00207047000054
:104E10000FB4044910B503AA029800F031FA10BC8F
:104E20005DF814FB180000200FB41CB5074B06AA50
:104E30007B4469460090059800F0F3F9002069462C
:104E400000F002FA1CBC5DF814FB00001504000021
:104E500070B5044685690068C10601D5302600E0BA
:104E60002026C00707D070BDD4E901213046904705
:104E7000206A401C20626D1EF6D570BD70B50446D8
:104E800085690078C00707D170BDD4E901212020D1
:104E90009047206A401C20626D1EF6D570BD70B52B
:104EA0000C460546012A05D02878800600D5EA6917
:104EB000002302E0012305E05B1C934202D2E05C88
:104EC0000028F9D1A869E618C01AA861286A184410
:104ED00028622846FFF7BCFF04E0D5E9012114F859
:104EE000010B9047B442F8D32846FFF7C7FF70BDC7
:104EF0002DE9F0410646002410687529314616A5B3
:104F000010D0AFF30080002802DA404213A507E07A
:104F100031688A0701D512A502E0490704D511A519
:104F2000012401E0AFF3008000210A2206F12407EA
:104F300009E0B0FBF2FCB0FBF2F302FB1C003030E6
:104F400078541846491C0028F3D123462A46304697
:104F5000BDE8F04100F007B9000000002D0000009E
:104F60002B0000002000000070B504460D462146CD
:104F70001068AFF300802188090502D50F4A7A44F2
:104F800002E00E4A7A440E32002104F1240305E0C7
:104F900000F00F060009965D5E54491C0028F7D109
:104FA00020780023000704D5702D02D009B1022318
:104FB00011322046BDE8704000F0D5B88E050000E3
:104FC0002DE9F05F894604464FF0000ADFF824B16E
:104FD000FB44C0F820A02046E168884700287DD027
:104FE000252806D0D4E901219047206A401C206280
:104FF000F1E700255F462046E168884720280646FD
:1050000007DB312E05D2B81910F8200C08B1054382
:10501000F1E7A80701D525F00405C4F81CA0002776
:10502000C4F818A02A2E09D0304600F06FF938B322
:1050300004EB8708303EC8F8186019E059F8041BE3
:10504000204604EB87029161E1688847012F0646FC
:1050500018D1E069002820DA25F020051DE0D8F8F5
:10506000180000EB800006EB40003038C8F818004C
:105070002046E1688847064600F048F90028EED14E
:10508000012F0AD02E2E08D12046E16888477F1CC8
:105090000646022F45F02005C4DBA069002803DA8C
:1050A000404245F00105A061E80701D025F0100558
:1050B000A6B1A6F14100192802D8203645F40065B2
:1050C0004A463146204625604D46FBF797F860B1C9
:1050D000012807D0ED1D25F0070000E007E000F1F2
:1050E000080978E705F1040975E730467AE7206A90
:1050F000BDE8F09F64050000421E12F8013F002B3E
:10510000FBD111F8013B002B02F8013BF9D17047AC
:105110004FF0000200B5134694469646203922BF50
:10512000A0E80C50A0E80C50B1F12001BFF4F7AF9B
:10513000090728BFA0E80C5048BF0CC05DF804EB7D
:10514000890028BF40F8042B08BF704748BF20F8EB
:10515000022B11F0804F18BF00F8012B70477047E9
:105160007047704770472DE9F0470D4699469246C3
:10517000044600F124080168880604D5E06921F09E
:105180001001216000E00120A84201DD471B00E082
:105190000027A1697A1902EB0900081AA06120789A
:1051A000C00602D42046FFF753FE002608E0D4E9EB
:1051B00001211AF806009047206A401C761C2062E4
:1051C0004E45F4DB2078C0060AD52046FFF740FEA6
:1051D00006E0D4E9012130209047206A401C20627B
:1051E000381EA7F10107F4DC07E0D4E9012118F823
:1051F00005009047206A401C2062281EA5F1010589
:10520000F3DC2046FFF73AFE2078000602D50220A4
:10521000BDE8F0870120FBE701694A1C02610878BC
:10522000704700B58FB0CDE90131002105910549E6
:105230007944CDE9031011466846FFF7C1FE0FB06F
:1052400000BD0000E5FFFFFF0A6802F8010B0A60DD
:10525000704710B5436913B1AFF3008001E0FFF769
:105260001EFE012010BD127800F124010A700022F8
:105270004A700122EDE711684FF0FF32E9E70000C4
:10528000074B70B50D467B44FFF7CBFF044628461D
:1052900000F008F810B14FF0FF3070BD204670BD2F
:1052A0002FB4FFFF007B00F080007047754600F0D0
:1052B00029F8AE4605006946534620F007008546AA
:1052C00018B020B5FBF7A8FABDE820404FF0000663
:1052D0004FF000074FF000084FF0000B21F00701DE
:1052E000AC46ACE8C009ACE8C009ACE8C009ACE821
:1052F000C0098D4670470446AFF300802046FAF798
:1053000097FF0000004870477412002030380A28C8
:1053100001D201207047002070474FF04070E1EE4D
:10532000100A7047000000001F323021132223248E
:10533000182526273433191A111420151731122F66
:10534000162E02030405060708090A0B2B6E0F1020
:105350003D0C0D1B1C1D2A2829013536371E707186
:1053600072737475767778797A7B7C7D7E4B505535
:105370004C5156594F54535A5F64696A6C5D626769
:105380005C61665B606563682D8100000000000061
:10539000000000000000000000000000000000000D
:1053A0000000000000000000006B0038000000005A
:1053B00000000000000000000000000000000000ED
:1053C00000000000000000000000000000000000DD
:1053D00000000000000000000000000000000000CD
:1053E00000000000000000000000000000000000BD
:1053F00000000000000000000000000000000000AD
:10540000000000003A2C3C7F40393E800060313281
:1054100033343536373839302D3D000D0971776515
:1054200072747975696F705B5D5C00617364666747
:10543000686A6B6C3B27000A00007A786376626EBC
:105440006D2C2E2F00000000002000000000000046
:105450000000000000000000000000000D0000003F
:1054600000000000000000373431002F38353230A2
:105470002A3936332E2D2B000A00000000000000D0
:105480000000000000000000000000000000007E9E
:1054900021402324255E262A28295F2B0000005165
:1054A000574552545955494F507B7D7C00415344D8
:1054B0004647484A4B4C3A22000A00005A58435685
:1054C000424E4D3C3E3F0000000000000000000046
:1054D00000000000000000000000000000000000CC
:1054E00000000000000000000000000000000000BC
:1054F00000000000000000000000000000000000AC
:10550000000000000000000000000000000000009B
:1055100030313233343536373839414243444546E9
:1055200040305800303132333435363738396162E3
:1055300063646566403078000400000800000000E5
:105540000000000200010000100000006C5500087F
:1055500000000020F0000000C40100085C560008B4
:10556000F0000020E8170000E0010008007A030ABC
:105570000000000000000000010203040607080903
:105580000000000000000000000000000000010218
:10559000030401020304060708090000FD310008A6
:1055A000E5310008F1310008300000200000000063
:1055B00000000000000000000000000000000000EB
:1055C0005141000899420008D34300087B44000879
:1055D000C5450008CD45000800000000000000009F
:1055E00000000000000000000000000000000000BB
:1055F00000000000214700082947000800000000C3
:105600000000000000000000474800084B49000867
:105610005D480008774800086748000841490008CD
:1056200081480008AF480008C7480008D148000872
:10563000FB480008094900081749000825490008E7
:1056400031490008000000002F49000855490008B2
:0C5650000000000000000000000000004E
:040000050800018965
:00000001FF
